:020000040000FA
:060000000A128A110C280F
:10000800FE00030EF6000A08F7000A128A11B52846
:100018000A128A110F28F001F101F201F301F4012B
:10002800F50183010A128A1119280A128A1162201D
:100038000A128A11831203138618232824282828D1
:100048000130F4000030F500861C2B282C283A28B3
:1000580074037504031D312832283A28F401F50188
:100068000130F0070318F10A0030F10706193D289E
:100078003E2842280130F2000030F300061D4528D2
:100088004628542872037304031D4B284C2854280F
:10009800F201F301FF30F0070318F10AFF30F1070E
:1000A8000A128A11C5200A128A110A128A11A52079
:1000B8000A128A111E280A128A110C2883160313A1
:1000C800890183120313890183160313870183129D
:1000D8000313870183160313850183120313850114
:1000E80083160313880183120313880183160317E9
:1000F80088018901831203130614861483160313D7
:100108008516F801F901FA0125300A128A118F20A3
:100118000A128A110800FB008316031387127B1D3D
:10012800962897289B287A08940087159F2878088E
:100138007A04940087117B087904831203139400CE
:1001480008007108803AFF0080307F02031DAE2846
:10015800FF307002031CB128B228B428F001F10165
:100168000800831203138C1DBA28BB28BE28700808
:1001780093008C1177088A00760E8300FE0E7E0E9F
:0C018800090070088312031388000800AF
:04400E00D120FF3F7F
:00000001FF
