:020000040000FA
:060000000A128A110C280F
:10000800FE00030EF0000A08F1000A128A11642AA1
:100018000A128A110F280A128A1183220A128A11D7
:10002800C5000A128A1184220A128A11C6000A120D
:100038008A1185220A128A11C7000A128A11862299
:100048000A128A11C8000A128A1187220A128A1112
:10005800C90083133530840045300A128A1174228E
:100068000A128A11FB0183010A128A11502A83128B
:100078000313A101F51F412842284F28F209F3096B
:10008800F409F509F20A0319F30A0319F40A031922
:10009800F50AA101A10AF91F522853286228F60976
:1000A800F709F809F909F60A0319F70A0319F80A0A
:1000B8000319F90A0130FA007A08A1060030A500F0
:1000C8000030A4000030A3000030A20075087404BA
:1000D80073047204031971287228BF28A001A00AAA
:1000E80082280130FA000310F20DF30DF40DF50D1E
:1000F800FA0B77280130FA007A08A007F51F85283F
:10010800862875280130FA000310A20DA30DA40D4E
:10011800A50DFA0B882875087902031D9D28740817
:100128007802031D9D2873087702031D9D28720815
:100138007602031CA028A128B0287208F6027308CA
:10014800031C730FF7027408031C740FF802750878
:10015800031C750FF902221401300310F50CF40C7E
:10016800F30CF20CFF3E031DB1280130A002031D61
:10017800BE28BF28862821080319C328C428CF28E9
:10018800A209A309A409A509A20A0319A30A031924
:10019800A40A0319A50A2508F5002408F400230871
:1001A800F3002208F2000800831203131E08B100AE
:1001B800B201B301B4013408C4003308C3003208E3
:1001C800C2003108C1000030A9000030A80000308A
:1001D800A7000A30A6000030F5000030F400003017
:1001E800F3006430F2004408F9004308F8004208BC
:1001F800F7004108F6000A128A113B200A128A11F8
:10020800750883120313AD007408AC007308AB00C3
:100218007208AA000A128A116C210A128A11831222
:1002280003132608303EB1003108C5000030A9008C
:100238000030A8000030A7000A30A6000030F50002
:100248000030F4000030F3000A30F2004408F900EE
:100258004308F8004208F7004108F6000A128A111C
:100268003B200A128A11750883120313AD00740823
:10027800AC007308AB007208AA000A128A116C213C
:100288000A128A11831203132608303EB10031087E
:10029800C6000030A9000030A8000030A7000A30CE
:1002A800A6004408AD004308AC004208AB00410872
:1002B800AA000A128A116C210A128A1183120313E6
:1002C8002608303EB1003108C8009F140C130800FE
:1002D80083120313B001AD1F722973298029AA095B
:1002E800AB09AC09AD09AA0A0319AB0A0319AC0A90
:1002F8000319AD0AB001B00AA91F832984298F29DF
:10030800A609A709A809A909A60A0319A70A03198A
:10031800A80A0319A90A2908280427042604031986
:1003280096299729DA29AF01AF0AA7290130AE002B
:100338000310A60DA70DA80DA90DAE0B9C29013021
:10034800AE002E08AF07A91FAA29AB299A292908A8
:100358002D02031DB92928082C02031DB9292708D5
:100368002B02031DB92926082A02031CBC29BD2912
:10037800CB292608AA022708031C270FAB02280846
:10038800031C280FAC022908031C290FAD020130F9
:100398000310A90CA80CA70CA60CFF3E031DCC2922
:1003A8000130AF02031DD929DA29AB293008031916
:1003B800DE29DF29EA29AA09AB09AC09AD09AA0A8D
:1003C8000319AB0A0319AC0A0319AD0A2D08A900D1
:1003D8002C08A8002B08A7002A08A60008008316E6
:1003E800031788018901831603138501860180306C
:1003F800870088018901831203138501860187011B
:10040800880189018316031396018B118B120B1730
:100418008B1761308F008112811101118110011435
:1004280006308312031381000B1183160317091674
:100438000A128A117C220A128A11831603131F12C8
:100448009F129F13831203139F141F148B17831675
:1004580003130C130C178516F201F301F401253070
:100468000A128A113A220A128A110800F500831624
:1004780003138712751D412A422A462A74089400DC
:1004880087154A2A72087404940087117508730442
:1004980083120313940008000A128A11F3210A1226
:1004A8008A11831203139F185A2A5B2A552A0A12A3
:1004B8008A11D8200A128A11552A0A128A110C2880
:1004C800831203138C1D692A6A2A6D2A4108930036
:1004D8008C1171088A00700E8300FE0E7E0E0900D2
:1004E80064008001840A0406031900340406752A8E
:1004F800831203139F161F129F151F110800303413
:0805080030342E34303400348D
:04400E00D420FF3F7C
:00000001FF
