:020000040000FA
:060000000A128A110E280D
:10000800FE00030EF1000408F2000A08F3000A12C9
:100018008A11C02B0A128A111128F601F701F8017A
:10002800F90183134030840055300A128A11632580
:100038000A128A1183010A128A118729831203136B
:10004800B6002D30AF002F08B200702925303806D1
:1000580003192F2830283C283808AF0036088400B8
:100068002F08831380000130AF002F08B6077029CE
:10007800B3012C0884000A128A1141240A128A1139
:100088002E3A031D4828492880280130AF002F0840
:10009800AC07B7016F28831203133708AF002F0886
:1000A800F4000A300A128A1111250A128A118312E1
:1000B8000313B0003008B7002C0884000A128A1114
:1000C80041240A128A11D03EAF002F08B707013029
:1000D800AF002F08AC072C0884000A128A114124AB
:1000E8000A128A110A128A1128250A128A1103187B
:1000F8007E287F284F288128B701013083120313F7
:10010800AC07FF302C0784000A128A1141240A1216
:100118008A11B800AF00B0013008003A03199528D9
:1001280070292F08003A03198229643A0319A02874
:100138000D3A0319A0287029320884008313000897
:10014800B400840A0008B5000230AF002F08B207D7
:10015800B51FAF28B028B9280330AF002F08B30463
:10016800B409B509B40A0319B50A3708031DBD282F
:10017800BE28C82834083504031DC328C428C82845
:100188000130AF002F08B707B801B80A3808AF0028
:100198002F07013E84000A128A1141240A128A118B
:1001A800B0000A128A1141240A128A11B1003108DA
:1001B8003502031DE128300834020318E428E52835
:1001C800E628F0280130AF002F08B80705303806B8
:1001D800031DEF28F028CA283708AF00B001AF1B6D
:1001E800B0033008803A803C031DFC282F083802F1
:1001F8000318FF28002901291B2983120313370834
:10020800AF00B001AF1BB0033008803AB1008030B6
:100218003102031D112938082F0203181429152942
:100228001B29831203133808AF002F08B700831265
:1002380003133308033903192229232967292D3089
:10024800AF00360884002F08831380000130AF0008
:100258002F08B60767290A30A7000030A80037081A
:10026800AF002F07013E84000A128A1141240A12A6
:100278008A11A0000A128A1141240A128A11A100C7
:100288003508A3003408A2000A128A117A230A1238
:100298008A11831203132108AA002008A9000A1250
:1002A8008A1105240A128A11831203132708303E83
:1002B800B0003008B8003808AF00360884002F08AE
:1002C800831380002A29FF30AF002F08B707370AA9
:1002D800031D6F2970292F290130AC07FF302C0727
:1002E80084000A128A1141240A128A11AF002F08C9
:1002F800B8003808031D812982292A283608840075
:100308008313800108000A128A1129230A128A110C
:10031800831203130514851405150510073083127D
:100328000313BE007C30BD00BD0B9829BE0B982975
:1003380000000A128A115A250A128A11831203131D
:10034800BD003D08F900073083120313BE007C305E
:10035800BD00BD0BAD29BE0BAD29000083120313F0
:1003680005148510073083120313BE007C30BD00CE
:10037800BD0BBC29BE0BBC2900000A128A115A25E4
:100388000A128A1183120313BD003D08C900073001
:1003980083120313BE007C30BD00BD0BD129BE0BF8
:1003A800D129000083120313851405110730831225
:1003B8000313BE007C30BD00BD0BE029BE0BE02955
:1003C80000000A128A115A250A128A11831203138D
:1003D800BD003D08F800073083120313BE007C30CF
:1003E800BD00BD0BF529BE0BF529000083120313D0
:1003F80005151C30BD003D08AC007908BE00BF01E2
:1004080003103E0DAD003F0DAE004A300A128A11AE
:1004180022200A128A11233083120313BD003D08DB
:10042800AC007808BE00BF0103103E0DAD003F0DC3
:10043800AE0050300A128A1122200A128A110A12BA
:100448008A1132220A128A11790883120313BD0015
:100458003D08C80091290A128A110E288312031335
:10046800A20100300A128A11BC240A128A110B3028
:100478000A128A1175240A128A1183120313A2011F
:1004880001300A128A11BC240A128A112A308312F6
:100498000313B9003908AC000030AD00AE003A30A3
:1004A8000A128A1122200A128A11831203134B0896
:1004B8000A128A11D9240A128A112E300A128A11B4
:1004C800D9240A128A11831203134C080A128A11BA
:1004D800D9240A128A11831203134D080A128A11A9
:1004E800D9240A128A11831203134E080A128A1198
:1004F800D9240A128A1120300A128A11D9240A1220
:100508008A118312031351080A128A11D9240A1274
:100518008A112E300A128A11D9240A128A118312DA
:10052800031352080A128A11D9240A128A11831253
:10053800031353080A128A11D9240A128A11831242
:10054800031354080A128A11D9240A128A11203076
:100558000A128A11D9240A128A11831203133A083B
:100568000A128A11D9240A128A11831203133B082A
:100578000A128A11D9240A128A11831203133C0819
:100588000A128A11D9240A128A11831203133D0808
:100598000A128A11D9240A128A11080000300A1294
:1005A8008A117E250A128A111A3083120313A300B6
:1005B800F730A200A20BDE2AA30BDE2AE32A303092
:1005C8000A128A11F5240A128A11073083120313BA
:1005D800A3007C30A200A20BEF2AA30BEF2A000095
:1005E80030300A128A11F5240A128A110F30831248
:1005F8000313A3004730A200A20B002BA30B002B70
:1006080030300A128A11F5240A128A1138300A1277
:100618008A11F5240A128A1110300A128A11F52457
:100628000A128A1101300A128A11F5240A128A1153
:1006380006300A128A11F5240A128A110F300A129A
:100648008A11F5240A128A110800831603178801F3
:10065800890183160313850186018030870088018C
:1006680089018312031385018601870188018901A5
:100678008316031396018B118B120B178B1761309E
:100688008F0081128111011181100114063083122B
:10069800031381000B110A128A11D2220A128A113D
:1006A8000C300A128A11F5240A128A110A128A11C8
:1006B8004B250A128A110A128A1172250A128A1106
:1006C8000A128A113A250A128A110A128A11782501
:1006D8000A128A1183120313A001A101A20120307A
:1006E8000A128A119E240A128A110800831203131F
:1006F800A501A601200821040319832B842BBB2BF9
:10070800A401A40A922B01300310A00DA10DFF3EF5
:10071800031D882B0130F4007408A407A11F952B32
:10072800962B872B01300310A50DA60DFF3E031D48
:10073800972B21082302031DA32B20082202031C48
:10074800A62BA72BAE2B2008A2022108031CA3036B
:10075800A302251401300310A10CA00CFF3E031DB9
:10076800AF2B0130A402031DBA2BBB2B962B2608F6
:10077800A1002508A0000800831603130C1EC52B32
:10078800C62BF32B831203130C1ECB2BCC2BF32B72
:1007980076080319D02BD12BD82B77084A3E840032
:1007A800831300089900DE2B7708503E84008313DA
:1007B800000899000130F0007008F7070530770647
:1007C800031DE72BE82BF32B76080319EC2BEE2BF4
:1007D8000130EF2B0030F0007008F600F7018312AB
:1007E8008C1EF72BF82BFC2B1A08F0007008C80099
:1007F80073088A0072088400710E8300FE0E7E0E54
:100808000900831203132708280403190C2C0D2C44
:100818003C2CAB01AB0A1B2C01300310A70DA80D13
:10082800FF3E031D112C0130F5007508AB07A81F0A
:100838001E2C1F2C102C28082A02031D252C2708E3
:100848002902031C282C292C2F2C2708A902280848
:10085800031CAA03AA0201300310A80CA70CFF3E30
:10086800031D302C0130AB02031D3B2C3C2C1F2CEC
:100878002A08A8002908A700080004308A000408EC
:10088800840A82070034013400340A3400346434A2
:100898000034E834033410342734203420345334FB
:1008A80031343A3420342034533432343A34203416
:1008B8002034533433343A3420340034413425342A
:1008C8002E343334693456340034423425342E34CB
:1008D800333469345634003425342E34333469348F
:1008E800003483120313A200A301A401902C23084F
:1008F800220784000A128A1141240A128A110A1254
:100908008A11D9240A128A11013083120313A3070A
:100918000318A40A0030A4072308220784000A1237
:100928008A1141240A128A11003A031D9C2C9D2C1D
:100938007B2C0800F400831603138712741DA52C62
:10094800A62CAE2C831203132208831603139400DB
:100958008715B62C83120313200822048316031369
:10096800940087117408831203132104940008006B
:1009780083120313A3002308031DC32CC42CCC2CFF
:100988002208803E0A128A11F5240A128A11D82CEC
:100998002303031DD02CD12CD82C2208C03E0A12C8
:1009A8008A11F5240A128A110800F500831203132C
:1009B800091475080A128A117E250A128A118312EF
:1009C80003130915063083120313A1002F30A0006A
:1009D800A00BEC2CA10BEC2CF12C831203130911A6
:1009E8000800F50083120313091075080A128A110A
:1009F8007E250A128A118312031309150630831201
:100A08000313A1002F30A000A00B082DA10B082D67
:100A18000D2D831203130911080083120313A1007B
:100A2800A001211C182D192D1D2D7408F50075081D
:100A3800A0070310F40D0310A10C2108031D252D98
:100A4800262D152D20080800F500F4013A3075020E
:100A580003182F2D302D382D30307502031C352DFD
:100A6800362D382DF401F40A740C0800831603138C
:100A78009A01193099001815181283120313981740
:100A8800831603131813831203131816080083160A
:100A980003139A01193099001815181283120313B9
:100AA8009817831603131813981608000A128A1148
:100AB8006B250A128A1183120313130808006400B5
:100AC8008001840A0406031900340406642D831681
:100AD8000313141C702D712D6B2D08008B170B1729
:100AE800831603130C1608008B170B1783160313B2
:100AF8008C160800F4007408831203138800080099
:04400E00D420FF3F7C
:00000001FF
