:020000040000FA
:060000000A128A110C280F
:10000800FE00030EF0000A08F1000A128A1188287F
:100018000A128A110F28F601F701F80183010A1262
:100028008A1174288316031788018901831603131C
:1000380085018601803087008801890183120313B6
:1000480085018601870188018901831603139601BA
:100058008B118B120B178B1761308F008112811156
:1000680001118110011406308312031381000B1152
:1000780083160317091509160A128A11A1200A12F4
:100088008A11831603131F129F129F1383120313DF
:100098009F141F148B17831603130C130C17851644
:1000A800F201F301F40125300A128A115E200A12C6
:1000B8008A110800F500831603138712751D652839
:1000C80066286A287408940087156E2872087404D4
:1000D80094008711750873048312031394000800B1
:1000E8000A128A1116200A128A11831203139F1802
:1000F8007E287F2879280A128A1198200A128A11E4
:1001080079280A128A110C28831203138C1D8D2852
:100118008E289128780893008C1171088A00700E37
:100128008300FE0E7E0E0900831203131E08F200E0
:100138007208F8009F140C130800831203139F160B
:080148001F129F151F11080092
:04400E00D420FF3F7C
:00000001FF
